{
  "_format": "hh-sol-artifact-1",
  "contractName": "SynergyNFT",
  "sourceName": "contracts/SynergyNFT.sol",
  "abi": [
    {
      "inputs": [],
      "stateMutability": "nonpayable",
      "type": "constructor"
    },
    {
      "anonymous": false,
      "inputs": [
        {
          "indexed": true,
          "internalType": "address",
          "name": "owner",
          "type": "address"
        },
        {
          "indexed": true,
          "internalType": "address",
          "name": "approved",
          "type": "address"
        },
        {
          "indexed": true,
          "internalType": "uint256",
          "name": "tokenId",
          "type": "uint256"
        }
      ],
      "name": "Approval",
      "type": "event"
    },
    {
      "anonymous": false,
      "inputs": [
        {
          "indexed": true,
          "internalType": "address",
          "name": "owner",
          "type": "address"
        },
        {
          "indexed": true,
          "internalType": "address",
          "name": "operator",
          "type": "address"
        },
        {
          "indexed": false,
          "internalType": "bool",
          "name": "approved",
          "type": "bool"
        }
      ],
      "name": "ApprovalForAll",
      "type": "event"
    },
    {
      "anonymous": false,
      "inputs": [
        {
          "indexed": true,
          "internalType": "address",
          "name": "recipient",
          "type": "address"
        },
        {
          "indexed": false,
          "internalType": "uint256",
          "name": "tokenId",
          "type": "uint256"
        },
        {
          "indexed": false,
          "internalType": "string",
          "name": "tokenURI",
          "type": "string"
        },
        {
          "indexed": false,
          "internalType": "uint256",
          "name": "nftType",
          "type": "uint256"
        },
        {
          "indexed": false,
          "internalType": "uint256",
          "name": "timestamp",
          "type": "uint256"
        }
      ],
      "name": "NFTMinted",
      "type": "event"
    },
    {
      "anonymous": false,
      "inputs": [
        {
          "indexed": true,
          "internalType": "address",
          "name": "previousOwner",
          "type": "address"
        },
        {
          "indexed": true,
          "internalType": "address",
          "name": "newOwner",
          "type": "address"
        }
      ],
      "name": "OwnershipTransferred",
      "type": "event"
    },
    {
      "anonymous": false,
      "inputs": [
        {
          "indexed": true,
          "internalType": "address",
          "name": "from",
          "type": "address"
        },
        {
          "indexed": true,
          "internalType": "address",
          "name": "to",
          "type": "address"
        },
        {
          "indexed": true,
          "internalType": "uint256",
          "name": "tokenId",
          "type": "uint256"
        }
      ],
      "name": "Transfer",
      "type": "event"
    },
    {
      "inputs": [
        {
          "internalType": "address",
          "name": "to",
          "type": "address"
        },
        {
          "internalType": "uint256",
          "name": "tokenId",
          "type": "uint256"
        }
      ],
      "name": "approve",
      "outputs": [],
      "stateMutability": "nonpayable",
      "type": "function"
    },
    {
      "inputs": [
        {
          "internalType": "address",
          "name": "owner",
          "type": "address"
        }
      ],
      "name": "balanceOf",
      "outputs": [
        {
          "internalType": "uint256",
          "name": "",
          "type": "uint256"
        }
      ],
      "stateMutability": "view",
      "type": "function"
    },
    {
      "inputs": [
        {
          "internalType": "uint256",
          "name": "tokenId",
          "type": "uint256"
        }
      ],
      "name": "getApproved",
      "outputs": [
        {
          "internalType": "address",
          "name": "",
          "type": "address"
        }
      ],
      "stateMutability": "view",
      "type": "function"
    },
    {
      "inputs": [],
      "name": "getCurrentTokenId",
      "outputs": [
        {
          "internalType": "uint256",
          "name": "",
          "type": "uint256"
        }
      ],
      "stateMutability": "view",
      "type": "function"
    },
    {
      "inputs": [
        {
          "internalType": "uint256",
          "name": "nftType",
          "type": "uint256"
        }
      ],
      "name": "getNftTypeCount",
      "outputs": [
        {
          "internalType": "uint256",
          "name": "",
          "type": "uint256"
        }
      ],
      "stateMutability": "view",
      "type": "function"
    },
    {
      "inputs": [
        {
          "internalType": "address",
          "name": "owner",
          "type": "address"
        },
        {
          "internalType": "address",
          "name": "operator",
          "type": "address"
        }
      ],
      "name": "isApprovedForAll",
      "outputs": [
        {
          "internalType": "bool",
          "name": "",
          "type": "bool"
        }
      ],
      "stateMutability": "view",
      "type": "function"
    },
    {
      "inputs": [
        {
          "internalType": "address",
          "name": "recipient",
          "type": "address"
        },
        {
          "internalType": "string",
          "name": "tokenURI",
          "type": "string"
        },
        {
          "internalType": "uint256",
          "name": "nftType",
          "type": "uint256"
        }
      ],
      "name": "mintNFT",
      "outputs": [
        {
          "internalType": "uint256",
          "name": "",
          "type": "uint256"
        }
      ],
      "stateMutability": "payable",
      "type": "function"
    },
    {
      "inputs": [],
      "name": "name",
      "outputs": [
        {
          "internalType": "string",
          "name": "",
          "type": "string"
        }
      ],
      "stateMutability": "view",
      "type": "function"
    },
    {
      "inputs": [
        {
          "internalType": "uint256",
          "name": "",
          "type": "uint256"
        }
      ],
      "name": "nftTypeCounts",
      "outputs": [
        {
          "internalType": "uint256",
          "name": "",
          "type": "uint256"
        }
      ],
      "stateMutability": "view",
      "type": "function"
    },
    {
      "inputs": [
        {
          "internalType": "uint256",
          "name": "",
          "type": "uint256"
        }
      ],
      "name": "nftTypeToTokenId",
      "outputs": [
        {
          "internalType": "uint256",
          "name": "",
          "type": "uint256"
        }
      ],
      "stateMutability": "view",
      "type": "function"
    },
    {
      "inputs": [],
      "name": "owner",
      "outputs": [
        {
          "internalType": "address",
          "name": "",
          "type": "address"
        }
      ],
      "stateMutability": "view",
      "type": "function"
    },
    {
      "inputs": [
        {
          "internalType": "uint256",
          "name": "tokenId",
          "type": "uint256"
        }
      ],
      "name": "ownerOf",
      "outputs": [
        {
          "internalType": "address",
          "name": "",
          "type": "address"
        }
      ],
      "stateMutability": "view",
      "type": "function"
    },
    {
      "inputs": [],
      "name": "renounceOwnership",
      "outputs": [],
      "stateMutability": "nonpayable",
      "type": "function"
    },
    {
      "inputs": [
        {
          "internalType": "address",
          "name": "from",
          "type": "address"
        },
        {
          "internalType": "address",
          "name": "to",
          "type": "address"
        },
        {
          "internalType": "uint256",
          "name": "tokenId",
          "type": "uint256"
        }
      ],
      "name": "safeTransferFrom",
      "outputs": [],
      "stateMutability": "nonpayable",
      "type": "function"
    },
    {
      "inputs": [
        {
          "internalType": "address",
          "name": "from",
          "type": "address"
        },
        {
          "internalType": "address",
          "name": "to",
          "type": "address"
        },
        {
          "internalType": "uint256",
          "name": "tokenId",
          "type": "uint256"
        },
        {
          "internalType": "bytes",
          "name": "data",
          "type": "bytes"
        }
      ],
      "name": "safeTransferFrom",
      "outputs": [],
      "stateMutability": "nonpayable",
      "type": "function"
    },
    {
      "inputs": [
        {
          "internalType": "address",
          "name": "operator",
          "type": "address"
        },
        {
          "internalType": "bool",
          "name": "approved",
          "type": "bool"
        }
      ],
      "name": "setApprovalForAll",
      "outputs": [],
      "stateMutability": "nonpayable",
      "type": "function"
    },
    {
      "inputs": [
        {
          "internalType": "bytes4",
          "name": "interfaceId",
          "type": "bytes4"
        }
      ],
      "name": "supportsInterface",
      "outputs": [
        {
          "internalType": "bool",
          "name": "",
          "type": "bool"
        }
      ],
      "stateMutability": "view",
      "type": "function"
    },
    {
      "inputs": [],
      "name": "symbol",
      "outputs": [
        {
          "internalType": "string",
          "name": "",
          "type": "string"
        }
      ],
      "stateMutability": "view",
      "type": "function"
    },
    {
      "inputs": [
        {
          "internalType": "uint256",
          "name": "",
          "type": "uint256"
        }
      ],
      "name": "tokenIdToTimestamp",
      "outputs": [
        {
          "internalType": "uint256",
          "name": "",
          "type": "uint256"
        }
      ],
      "stateMutability": "view",
      "type": "function"
    },
    {
      "inputs": [
        {
          "internalType": "uint256",
          "name": "tokenId",
          "type": "uint256"
        }
      ],
      "name": "tokenURI",
      "outputs": [
        {
          "internalType": "string",
          "name": "",
          "type": "string"
        }
      ],
      "stateMutability": "view",
      "type": "function"
    },
    {
      "inputs": [
        {
          "internalType": "address",
          "name": "from",
          "type": "address"
        },
        {
          "internalType": "address",
          "name": "to",
          "type": "address"
        },
        {
          "internalType": "uint256",
          "name": "tokenId",
          "type": "uint256"
        }
      ],
      "name": "transferFrom",
      "outputs": [],
      "stateMutability": "nonpayable",
      "type": "function"
    },
    {
      "inputs": [
        {
          "internalType": "address",
          "name": "newOwner",
          "type": "address"
        }
      ],
      "name": "transferOwnership",
      "outputs": [],
      "stateMutability": "nonpayable",
      "type": "function"
    },
    {
      "inputs": [],
      "name": "withdraw",
      "outputs": [],
      "stateMutability": "nonpayable",
      "type": "function"
    }
  ],
  "bytecode": "0x60806040523480156200001157600080fd5b506040518060400160405280600a81526020016914de5b995c99de53919560b21b8152506040518060400160405280600481526020016314d3919560e21b815250816000908162000063919062000190565b50600162000072828262000190565b5050506200008f620000896200009560201b60201c565b62000099565b6200025c565b3390565b600680546001600160a01b038381166001600160a01b0319831681179093556040519116919082907f8be0079c531659141344cd1fd0a4f28419497f9722a3daafe3b4186f6b6457e090600090a35050565b634e487b7160e01b600052604160045260246000fd5b600181811c908216806200011657607f821691505b6020821081036200013757634e487b7160e01b600052602260045260246000fd5b50919050565b601f8211156200018b57600081815260208120601f850160051c81016020861015620001665750805b601f850160051c820191505b81811015620001875782815560010162000172565b5050505b505050565b81516001600160401b03811115620001ac57620001ac620000eb565b620001c481620001bd845462000101565b846200013d565b602080601f831160018114620001fc5760008415620001e35750858301515b600019600386901b1c1916600185901b17855562000187565b600085815260208120601f198616915b828110156200022d578886015182559484019460019091019084016200020c565b50858210156200024c5787850151600019600388901b60f8161c191681555b5050505050600190811b01905550565b611910806200026c6000396000f3fe6080604052600436106101405760003560e01c806356189236116100b657806395d89b411161006f57806395d89b41146103a8578063a22cb465146103bd578063b88d4fde146103dd578063c87b56dd146103fd578063e985e9c51461041d578063f2fde38b1461046657600080fd5b806356189236146102f35780636352211e146103085780636e3381a01461032857806370a0823114610355578063715018a6146103755780638da5cb5b1461038a57600080fd5b8063095ea7b311610108578063095ea7b3146102225780632330a6ad1461024457806323b872dd146102715780633ccfd60b1461029157806342842e0e146102a65780634b73c85b146102c657600080fd5b806301ffc9a714610145578063034964a61461017a57806306fdde03146101b5578063081812fc146101d757806308598df01461020f575b600080fd5b34801561015157600080fd5b506101656101603660046113c8565b610486565b60405190151581526020015b60405180910390f35b34801561018657600080fd5b506101a76101953660046113e5565b60096020526000908152604090205481565b604051908152602001610171565b3480156101c157600080fd5b506101ca6104d8565b604051610171919061144e565b3480156101e357600080fd5b506101f76101f23660046113e5565b61056a565b6040516001600160a01b039091168152602001610171565b6101a761021d366004611509565b610591565b34801561022e57600080fd5b5061024261023d366004611574565b610722565b005b34801561025057600080fd5b506101a761025f3660046113e5565b60009081526008602052604090205490565b34801561027d57600080fd5b5061024261028c36600461159e565b610837565b34801561029d57600080fd5b50610242610868565b3480156102b257600080fd5b506102426102c136600461159e565b6108ac565b3480156102d257600080fd5b506101a76102e13660046113e5565b600a6020526000908152604090205481565b3480156102ff57600080fd5b506101a76108c7565b34801561031457600080fd5b506101f76103233660046113e5565b6108d7565b34801561033457600080fd5b506101a76103433660046113e5565b60086020526000908152604090205481565b34801561036157600080fd5b506101a76103703660046115da565b610937565b34801561038157600080fd5b506102426109bd565b34801561039657600080fd5b506006546001600160a01b03166101f7565b3480156103b457600080fd5b506101ca6109d1565b3480156103c957600080fd5b506102426103d83660046115f5565b6109e0565b3480156103e957600080fd5b506102426103f8366004611631565b6109ef565b34801561040957600080fd5b506101ca6104183660046113e5565b610a27565b34801561042957600080fd5b506101656104383660046116ad565b6001600160a01b03918216600090815260056020908152604080832093909416825291909152205460ff1690565b34801561047257600080fd5b506102426104813660046115da565b610a9b565b60006001600160e01b031982166380ac58cd60e01b14806104b757506001600160e01b03198216635b5e139f60e01b145b806104d257506301ffc9a760e01b6001600160e01b03198316145b92915050565b6060600080546104e7906116e0565b80601f0160208091040260200160405190810160405280929190818152602001828054610513906116e0565b80156105605780601f1061053557610100808354040283529160200191610560565b820191906000526020600020905b81548152906001019060200180831161054357829003601f168201915b5050505050905090565b600061057582610b11565b506000908152600460205260409020546001600160a01b031690565b600060038211156105dc5760405162461bcd60e51b815260206004820152601060248201526f496e76616c6964204e4654207479706560801b60448201526064015b60405180910390fd5b6000826000036105f557506706f05b59d3b20000610626565b8260010361060c5750670a688906bd8b0000610626565b826002036106235750670de0b6b3a7640000610626565b50345b8034101561066d5760405162461bcd60e51b8152602060048201526014602482015273125b9cdd59999a58da595b9d081c185e5b595b9d60621b60448201526064016105d3565b61067b600780546001019055565b600061068660075490565b90506106928682610b70565b60008481526008602052604081208054916106ac8361171a565b90915550506000818152600960209081526040808320879055600a90915290819020429081905590516001600160a01b038816917fe8915ac6c158f57d31247fae068c0e2ca5206c051f0f5fd91cfbe6451434004f916107119185918a918a91611741565b60405180910390a295945050505050565b600061072d826108d7565b9050806001600160a01b0316836001600160a01b03160361079a5760405162461bcd60e51b815260206004820152602160248201527f4552433732313a20617070726f76616c20746f2063757272656e74206f776e656044820152603960f91b60648201526084016105d3565b336001600160a01b03821614806107b657506107b68133610438565b6108285760405162461bcd60e51b815260206004820152603d60248201527f4552433732313a20617070726f76652063616c6c6572206973206e6f7420746f60448201527f6b656e206f776e6572206f7220617070726f76656420666f7220616c6c00000060648201526084016105d3565b6108328383610b8a565b505050565b6108413382610bf8565b61085d5760405162461bcd60e51b81526004016105d39061176d565b610832838383610c77565b610870610ddb565b6006546040516001600160a01b03909116904780156108fc02916000818181858888f193505050501580156108a9573d6000803e3d6000fd5b50565b610832838383604051806020016040528060008152506109ef565b60006108d260075490565b905090565b6000818152600260205260408120546001600160a01b0316806104d25760405162461bcd60e51b8152602060048201526018602482015277115490cdcc8c4e881a5b9d985b1a59081d1bdad95b88125160421b60448201526064016105d3565b60006001600160a01b0382166109a15760405162461bcd60e51b815260206004820152602960248201527f4552433732313a2061646472657373207a65726f206973206e6f7420612076616044820152683634b21037bbb732b960b91b60648201526084016105d3565b506001600160a01b031660009081526003602052604090205490565b6109c5610ddb565b6109cf6000610e35565b565b6060600180546104e7906116e0565b6109eb338383610e87565b5050565b6109f93383610bf8565b610a155760405162461bcd60e51b81526004016105d39061176d565b610a2184848484610f55565b50505050565b6060610a3282610b11565b6000610a4960408051602081019091526000815290565b90506000815111610a695760405180602001604052806000815250610a94565b80610a7384610f88565b604051602001610a849291906117ba565b6040516020818303038152906040525b9392505050565b610aa3610ddb565b6001600160a01b038116610b085760405162461bcd60e51b815260206004820152602660248201527f4f776e61626c653a206e6577206f776e657220697320746865207a65726f206160448201526564647265737360d01b60648201526084016105d3565b6108a981610e35565b6000818152600260205260409020546001600160a01b03166108a95760405162461bcd60e51b8152602060048201526018602482015277115490cdcc8c4e881a5b9d985b1a59081d1bdad95b88125160421b60448201526064016105d3565b6109eb82826040518060200160405280600081525061101b565b600081815260046020526040902080546001600160a01b0319166001600160a01b0384169081179091558190610bbf826108d7565b6001600160a01b03167f8c5be1e5ebec7d5bd14f71427d1e84f3dd0314c0f7b2291e5b200ac8c7c3b92560405160405180910390a45050565b600080610c04836108d7565b9050806001600160a01b0316846001600160a01b03161480610c4b57506001600160a01b0380821660009081526005602090815260408083209388168352929052205460ff165b80610c6f5750836001600160a01b0316610c648461056a565b6001600160a01b0316145b949350505050565b826001600160a01b0316610c8a826108d7565b6001600160a01b031614610cb05760405162461bcd60e51b81526004016105d3906117e9565b6001600160a01b038216610d125760405162461bcd60e51b8152602060048201526024808201527f4552433732313a207472616e7366657220746f20746865207a65726f206164646044820152637265737360e01b60648201526084016105d3565b826001600160a01b0316610d25826108d7565b6001600160a01b031614610d4b5760405162461bcd60e51b81526004016105d3906117e9565b600081815260046020908152604080832080546001600160a01b03199081169091556001600160a01b0387811680865260038552838620805460001901905590871680865283862080546001019055868652600290945282852080549092168417909155905184937fddf252ad1be2c89b69c2b068fc378daa952ba7f163c4a11628f55a4df523b3ef91a4505050565b6006546001600160a01b031633146109cf5760405162461bcd60e51b815260206004820181905260248201527f4f776e61626c653a2063616c6c6572206973206e6f7420746865206f776e657260448201526064016105d3565b600680546001600160a01b038381166001600160a01b0319831681179093556040519116919082907f8be0079c531659141344cd1fd0a4f28419497f9722a3daafe3b4186f6b6457e090600090a35050565b816001600160a01b0316836001600160a01b031603610ee85760405162461bcd60e51b815260206004820152601960248201527f4552433732313a20617070726f766520746f2063616c6c65720000000000000060448201526064016105d3565b6001600160a01b03838116600081815260056020908152604080832094871680845294825291829020805460ff191686151590811790915591519182527f17307eab39ab6107e8899845ad3d59bd9653f200f220920489ca2b5937696c31910160405180910390a3505050565b610f60848484610c77565b610f6c8484848461104e565b610a215760405162461bcd60e51b81526004016105d39061182e565b60606000610f958361114f565b600101905060008167ffffffffffffffff811115610fb557610fb561147d565b6040519080825280601f01601f191660200182016040528015610fdf576020820181803683370190505b5090508181016020015b600019016f181899199a1a9b1b9c1cb0b131b232b360811b600a86061a8153600a8504945084610fe957509392505050565b6110258383611227565b611032600084848461104e565b6108325760405162461bcd60e51b81526004016105d39061182e565b60006001600160a01b0384163b1561114457604051630a85bd0160e11b81526001600160a01b0385169063150b7a0290611092903390899088908890600401611880565b6020604051808303816000875af19250505080156110cd575060408051601f3d908101601f191682019092526110ca918101906118bd565b60015b61112a573d8080156110fb576040519150601f19603f3d011682016040523d82523d6000602084013e611100565b606091505b5080516000036111225760405162461bcd60e51b81526004016105d39061182e565b805181602001fd5b6001600160e01b031916630a85bd0160e11b149050610c6f565b506001949350505050565b60008072184f03e93ff9f4daa797ed6e38ed64bf6a1f0160401b831061118e5772184f03e93ff9f4daa797ed6e38ed64bf6a1f0160401b830492506040015b6d04ee2d6d415b85acef810000000083106111ba576d04ee2d6d415b85acef8100000000830492506020015b662386f26fc1000083106111d857662386f26fc10000830492506010015b6305f5e10083106111f0576305f5e100830492506008015b612710831061120457612710830492506004015b60648310611216576064830492506002015b600a83106104d25760010192915050565b6001600160a01b03821661127d5760405162461bcd60e51b815260206004820181905260248201527f4552433732313a206d696e7420746f20746865207a65726f206164647265737360448201526064016105d3565b6000818152600260205260409020546001600160a01b0316156112e25760405162461bcd60e51b815260206004820152601c60248201527f4552433732313a20746f6b656e20616c7265616479206d696e7465640000000060448201526064016105d3565b6000818152600260205260409020546001600160a01b0316156113475760405162461bcd60e51b815260206004820152601c60248201527f4552433732313a20746f6b656e20616c7265616479206d696e7465640000000060448201526064016105d3565b6001600160a01b038216600081815260036020908152604080832080546001019055848352600290915280822080546001600160a01b0319168417905551839291907fddf252ad1be2c89b69c2b068fc378daa952ba7f163c4a11628f55a4df523b3ef908290a45050565b6001600160e01b0319811681146108a957600080fd5b6000602082840312156113da57600080fd5b8135610a94816113b2565b6000602082840312156113f757600080fd5b5035919050565b60005b83811015611419578181015183820152602001611401565b50506000910152565b6000815180845261143a8160208601602086016113fe565b601f01601f19169290920160200192915050565b602081526000610a946020830184611422565b80356001600160a01b038116811461147857600080fd5b919050565b634e487b7160e01b600052604160045260246000fd5b600067ffffffffffffffff808411156114ae576114ae61147d565b604051601f8501601f19908116603f011681019082821181831017156114d6576114d661147d565b816040528093508581528686860111156114ef57600080fd5b858560208301376000602087830101525050509392505050565b60008060006060848603121561151e57600080fd5b61152784611461565b9250602084013567ffffffffffffffff81111561154357600080fd5b8401601f8101861361155457600080fd5b61156386823560208401611493565b925050604084013590509250925092565b6000806040838503121561158757600080fd5b61159083611461565b946020939093013593505050565b6000806000606084860312156115b357600080fd5b6115bc84611461565b92506115ca60208501611461565b9150604084013590509250925092565b6000602082840312156115ec57600080fd5b610a9482611461565b6000806040838503121561160857600080fd5b61161183611461565b91506020830135801515811461162657600080fd5b809150509250929050565b6000806000806080858703121561164757600080fd5b61165085611461565b935061165e60208601611461565b925060408501359150606085013567ffffffffffffffff81111561168157600080fd5b8501601f8101871361169257600080fd5b6116a187823560208401611493565b91505092959194509250565b600080604083850312156116c057600080fd5b6116c983611461565b91506116d760208401611461565b90509250929050565b600181811c908216806116f457607f821691505b60208210810361171457634e487b7160e01b600052602260045260246000fd5b50919050565b60006001820161173a57634e487b7160e01b600052601160045260246000fd5b5060010190565b84815260806020820152600061175a6080830186611422565b6040830194909452506060015292915050565b6020808252602d908201527f4552433732313a2063616c6c6572206973206e6f7420746f6b656e206f776e6560408201526c1c881bdc88185c1c1c9bdd9959609a1b606082015260800190565b600083516117cc8184602088016113fe565b8351908301906117e08183602088016113fe565b01949350505050565b60208082526025908201527f4552433732313a207472616e736665722066726f6d20696e636f72726563742060408201526437bbb732b960d91b606082015260800190565b60208082526032908201527f4552433732313a207472616e7366657220746f206e6f6e20455243373231526560408201527131b2b4bb32b91034b6b83632b6b2b73a32b960711b606082015260800190565b6001600160a01b03858116825284166020820152604081018390526080606082018190526000906118b390830184611422565b9695505050505050565b6000602082840312156118cf57600080fd5b8151610a94816113b256fea2646970667358221220cec327511dc71d97e862971009b7b33aaee61c6dfcaac96e93db8634167d276e64736f6c63430008140033",
  "linkReferences": {},
  "deployedLinkReferences": {}
}